:100000000C945D000C9485000C9485000C94850084
:100010000C9485000C9485000C9485000C9485004C
:100020000C9485000C9485000C9485000C9485003C
:100030000C9485000C9485000C9485000C9485002C
:100040000C94DA040C9485000C94A8040C9482049B
:100050000C9485000C9485000C9485000C9485000C
:100060000C9485000C94850000000008000201003B
:100070000003040700000000000000000000000072
:10008000250028002B0000000000240027002A0083
:10009000040404040404040402020202020203032E
:1000A0000303030301020408102040800102040836
:1000B0001020010204081020240511241FBECFEFD8
:1000C000D8E0DEBFCDBF22E0AAE5B1E001C01D92BD
:1000D000AC31B207E1F711E0A0E0B1E0ECE6F6E107
:1000E00002C005900D92AA35B107D9F710E0CDE511
:1000F000D0E004C02197FE010E942209CC35D1072F
:10010000C9F70E946F050C94340B0C94000090E02A
:10011000FC01EC55FF4F2491FC01E057FF4F849107
:10012000882399F090E0880F991FFC01EA57FF4F50
:10013000A591B491FC01E458FF4F859194918FB73C
:10014000F894EC91E22BEC938FBF0895CF92DF925D
:10015000EF92FF920F931F93CF93DF936C017A017D
:100160008B01C0E0D0E0CE15DF0589F0D8016D919C
:100170008D01D601ED91FC910190F081E02DC60139
:100180000995892B11F47E0102C02196ECCFC7019D
:10019000DF91CF911F910F91FF90EF90DF90CF9063
:1001A0000895FC01538D448D252F30E0842F90E07D
:1001B000821B930B541710F0CF9608950197089562
:1001C000FC01918D828D981761F0828DDF01A80F5F
:1001D000B11D5D968C91928D9F5F9F73928F90E081
:1001E00008958FEF9FEF0895FC01918D828D9817F0
:1001F00031F0828DE80FF11D858D90E008958FEF2D
:100200009FEF0895FC01918D228D892F90E0805CF5
:100210009F4F821B91098F739927089583E691E080
:100220000E94020121E0892B09F420E0822F089529
:10023000FC01848DDF01A80FB11DA35ABF4F2C9183
:10024000848D90E001968F739927848FA689B78952
:100250002C93A089B1898C9180648C93938D848D2B
:10026000981306C00288F389E02D80818F7D8083FA
:100270000895EF92FF920F931F93CF93DF93EC01BA
:1002800081E0888F9B8D8C8D981305C0E889F98952
:10029000808185FD24C0F62E0B8D10E00F5F1F4F6F
:1002A0000F731127E02E8C8DE8120CC00FB607FCDF
:1002B000FACFE889F989808185FFF5CFCE010E94C8
:1002C0001801F1CF8B8DFE01E80FF11DE35AFF4FAE
:1002D000F0820B8FEA89FB898081806207C0EE89FA
:1002E000FF896083E889F98980818064808381E067
:1002F00090E0DF91CF911F910F91FF90EF900895C3
:10030000CF93DF93EC01888D8823C9F0EA89FB89BC
:10031000808185FD05C0A889B9898C9186FD0FC0B3
:100320000FB607FCF5CF808185FFF2CFA889B98988
:100330008C9185FFEDCFCE010E941801E7CFDF91B0
:10034000CF91089580E090E0892B29F00E940E0162
:1003500081110C940000089590E0FC01E859FF4FD2
:100360003491FC01EC55FF4F2491FC01E057FF4F05
:10037000E491EE2309F43BC0332339F1333091F09B
:1003800038F43130A9F0323001F584B58F7D12C0D8
:10039000373091F03830A1F03430B9F480918000DA
:1003A0008F7D03C0809180008F77809380000DC087
:1003B00084B58F7784BD09C08091B0008F7703C06A
:1003C0008091B0008F7D8093B000F0E0EE0FFF1FB2
:1003D000E458FF4FA591B4918FB7F894EC91611157
:1003E00003C020952E2301C02E2B2C938FBF089580
:1003F0008E3008F08E508770806480937C008091EE
:100400007A00806480937A0080917A0086FDFCCF28
:10041000809178002091790090E0922B08953FB769
:10042000F89480915F0190916001A0916101B09179
:10043000620126B5A89B05C02F3F19F00196A11DAA
:10044000B11D3FBFBA2FA92F982F8827820F911D6A
:10045000A11DB11DBC01CD0142E0660F771F881FB1
:10046000991F4A95D1F70895CF93DF93EC0160E08F
:100470008E810E94AC0161E08E810E94AC0160E03F
:100480008E810E94AC018BE891E00197F1F7DF913A
:10049000CF910895CF92DF92EF92FF920F931F9327
:1004A000CF93DF937C016C0187E0C80ED11CC0E0C4
:1004B000D0E0062F10E0B8010C2E02C075956795AC
:1004C0000A94E2F76170F60181916F010E94AC011C
:1004D0002196C430D10579F7C701DF91CF911F91E3
:1004E0000F91FF90EF90DF90CF900C943402CF9259
:1004F000DF92EF92FF920F931F93CF93DF93EC0164
:10050000F62E642F8C810E94AC018D818F3F19F0F3
:1005100060E00E94AC018F850F2D10E084FF25C0A4
:100520006E0187E0C80ED11CE12CF12CB8010E2C15
:1005300002C0759567950A94E2F76170F6018191A2
:100540006F010E94AC01FFEFEF1AFF0A88E0E81686
:10055000F10461F7CE01DF91CF911F910F91FF90D0
:10056000EF90DF90CF900C943402B80184E0759541
:1005700067958A95E1F7CE010E944A026F2DCE0160
:10058000DF91CF911F910F91FF90EF90DF90CF906F
:100590000C944A0241E00E94770281E090E00895C5
:1005A00040E00C947702EF92FF920F931F93CF934A
:1005B000DF93EC01623018F08F8588608F876B8B3A
:1005C0001C8A80E48D8B80E18E8B80E58F8B8C8103
:1005D0000E9487008D818F3F11F00E9487008E81DD
:1005E0000E9487007E0187E0E80EF11C00E010E029
:1005F0008F8584FD03C084E090E002C088E090E035
:100600000817190744F4F70181917F010E948700C0
:100610000F5F1F4FEDCF8BE39DE00197F1F760E097
:100620008C810E94AC0160E08E810E94AC018D81C2
:100630008F3F19F060E00E94AC016F8564FD1DC022
:1006400063E0CE010E944A020BE416E4C801019760
:10065000F1F763E0CE010E944A02C8010197F1F769
:1006600063E0CE010E944A0283E592E00197F1F730
:1006700062E0CE010E944A0216C06062CE010E9472
:10068000D0028BE496E40197F1F76F856062CE01AA
:100690000E94D00283E592E00197F1F76F856062D6
:1006A000CE010E94D0026F856062CE010E94D0020E
:1006B00084E0888B6CE0CE010E94D00261E0CE0124
:1006C0000E94D0028BE39FE10197F1F782E0898BD2
:1006D00066E0CE01DF91CF911F910F91FF90EF90D7
:1006E0000C94D002089580E090E00895CF93DF93BA
:1006F000EC0188819981009711F00E94BD0919824F
:1007000018821D821C821B821A82DF91CF9108956C
:100710006115710579F0FB0101900020E9F731972F
:10072000AF01461B570BDC01ED91FC910280F38178
:10073000E02D099480E090E00895CF93DF93FC01D1
:10074000448155816081718183E691E00E94A60019
:10075000EC0164E271E083E691E00E9488038C0F73
:100760009D1FDF91CF9108950E941F0B0F931F9340
:10077000CF93DF93EC0188819981009729F02A813A
:100780003B812617370788F48B016F5F7F4F0E94EC
:10079000550A009761F0998388831B830A832C8113
:1007A0003D81232B11F4FC01108281E001C080E027
:1007B000DF91CF911F910F910895EF92FF920F93C8
:1007C0001F93CF93DF93EC01FB0184819581E0803F
:1007D000F1800C811D81E114F104B1F00097B9F0B2
:1007E000080F191FB801CE010E94B603882361F0DB
:1007F000288139818C819D81B701820F931F0E94CE
:100800002D0B1D830C8303C0CE010E947603CE0105
:10081000DF91CF911F910F91FF90EF900895EF928C
:10082000FF920F931F93CF93DF93EC017B018A011B
:10083000BA010E94B603811104C0CE010E94760362
:1008400007C01D830C83B701888199810E942D0BFD
:10085000CE01DF91CF911F910F91FF90EF900895FE
:10086000EF92FF920F931F93CF93DF93CDB7DEB735
:1008700062970FB6F894DEBF0FBECDBF8C01CB01DF
:10088000F80111821082138212821582148250E0C4
:100890009E012F5F3F4F7901B9010E940D07F701BB
:1008A00001900020E9F73197AF014E195F09B701B8
:1008B000C8010E940F0462960FB6F894DEBF0FBE07
:1008C000CDBFDF91CF911F910F91FF90EF900895D1
:1008D000FB01DC0111961C921E9213961C921E9233
:1008E000129715961C921E9214978617970749F037
:1008F000608171816115710521F0448155810C94ED
:100900000F0408951F920F920FB60F9211242F9388
:100910003F934F935F936F937F938F939F93AF9387
:10092000BF93EF93FF9383E691E00E941801FF913C
:10093000EF91BF91AF919F918F917F916F915F9157
:100940004F913F912F910F900FBE0F901F901895D0
:100950001F920F920FB60F9211242F938F939F9394
:10096000EF93FF93E0917301F09174018081E09126
:100970007901F0917A0182FD12C0908180917C0111
:100980008F5F8F7320917D01821751F0E0917C0180
:10099000F0E0ED59FE4F958F80937C0101C080817E
:1009A000FF91EF919F918F912F910F900FBE0F901C
:1009B0001F9018951F920F920FB60F9211242F932C
:1009C0003F938F939F93AF93BF9380915B019091DF
:1009D0005C01A0915D01B0915E0130915A0123E06C
:1009E000230F2D3720F40196A11DB11D05C026E867
:1009F000230F0296A11DB11D20935A0180935B0124
:100A000090935C01A0935D01B0935E0180915F01C2
:100A100090916001A0916101B09162010196A11DC8
:100A2000B11D80935F0190936001A0936101B09329
:100A30006201BF91AF919F918F913F912F910F9044
:100A40000FBE0F901F901895E3E6F1E0138212821B
:100A500088EE93E0A0E0B0E084839583A683B7831B
:100A60008AE091E09183808385EC90E0958784878C
:100A700084EC90E09787868780EC90E0918B808B68
:100A800081EC90E0938B828B82EC90E0958B848B51
:100A900086EC90E0978B868B118E128E138E148EBF
:100AA000E0E0F2E0138212828CE191E09183808396
:100AB0008DE084838FEF85838CE0868385E0878358
:100AC00084E0808783E0818782E0828713861486B2
:100AD00015861686178661E0CF010C94D302CF935A
:100AE000DF93CDB7DEB768970FB6F894DEBF0FBEC1
:100AF000CDBF789484B5826084BD84B5816084BDA7
:100B000085B5826085BD85B5816085BD80916E00AB
:100B1000816080936E0010928100809181008260DC
:100B20008093810080918100816080938100809119
:100B300080008160809380008091B1008460809308
:100B4000B1008091B00081608093B00080917A0004
:100B5000846080937A0080917A00826080937A002A
:100B600080917A00816080937A0080917A00806819
:100B700080937A001092C100E0917301F0917401AA
:100B800082E08083E0916F01F09170011082E0912A
:100B90007101F09172018FEC808310927B01E091E2
:100BA0007701F091780186E08083E0917501F09102
:100BB0007601808180618083E0917501F0917601FA
:100BC000808188608083E0917501F0917601808159
:100BD00080688083E0917501F091760180818F7D3E
:100BE000808367E271E083E691E00E94880389E0F8
:100BF0000E9487008AE00E94870062E080E092E025
:100C00000E94D30268E371E080E092E00E948803D2
:100C100064E271E080E092E00E9488030BE31FE150
:100C200061E080E092E00E94D002C8010197F1F7F4
:100C300061E08AE00E94AC0160E089E00E94AC01C2
:100C40008FE00E94F801BC01990F880B990B0E945C
:100C50004F0720E030E040EA50E40E948A074B0151
:100C60005C018EE00E94F8017C014AE0BC01CE01EB
:100C700001960E94300418861F821A8619861C86E7
:100C80001B864BE050E067E471E0CE0107960E94BE
:100C90000F04BE016F5F7F4FCE0107960E94DD03F8
:100CA000BC01CE0143960E9468048F8198850E9402
:100CB000BD0989819A810E94BD0920E030E040E8A9
:100CC0005AE3C501B4010E948A0720E030E040E009
:100CD0005FE30E947F0820E030E048EC52E40E948D
:100CE0008A070E94EC084AE0CE0101960E94300477
:100CF00018861F821A8619861C861B8646E050E0DD
:100D000063E571E0CE0107960E940F04BE016F5F9C
:100D10007F4FCE0107960E94DD03BC01CE010D96E8
:100D20000E9468048F8198850E94BD0989819A81FB
:100D30000E94BD0925E6E216F10414F061E001C04D
:100D400060E089E00E94AC01CE0143960E949D03C1
:100D5000CE010D960E949D03E1E080911302811166
:100D6000E0E0E195F0E0E050FE4F6489606880E0EB
:100D700092E00E94D0024F89588D6B897C8980E077
:100D800092E00E94A600E0911302E23010F4E150DC
:100D900001C0E1E0F0E0E050FE4F6489606880E06F
:100DA00092E00E94D00249895A896D857E8580E053
:100DB00092E00E94A6000E940F024B015C0180EDB0
:100DC000C82E87E0D82EE12CF12C0E940F02DC0106
:100DD000CB0188199909AA09BB09883E9340A1054E
:100DE000B10558F081E0C81AD108E108F10828EEF1
:100DF000820E23E0921EA11CB11CC114D104E10497
:100E0000F10419F78D859E850E94BD098B899C8907
:100E10000E94BD090E94A20103CF4532510520F472
:100E2000423010F00C941807FB011082CB0108959A
:100E3000BB274A3031F4992322F4BDE29095819585
:100E40009F4F0C942407BB27FB015527AA27880F27
:100E5000991FAA1FA41710F0A41B83955051B9F72E
:100E6000A05DAA3308F0A95DA193009779F7B111AD
:100E7000B1931192CB010C943D07DC01FC01672F6B
:100E800071917723E1F7329704C07C916D93708361
:100E90006291AE17BF07C8F30895E89409C097FBA5
:100EA0003EF490958095709561957F4F8F4F9F4F41
:100EB0009923A9F0F92F96E9BB279395F695879585
:100EC00077956795B795F111F8CFFAF4BB0F11F448
:100ED00060FF1BC06F5F7F4F8F4F9F4F16C08823EF
:100EE00011F096E911C0772321F09EE8872F762F25
:100EF00005C0662371F096E8862F70E060E02AF066
:100F00009A95660F771F881FDAF7880F9695879551
:100F100097F908950E949D070C940E080E940008FE
:100F200038F00E94070820F0952311F00C94F70781
:100F30000C94FD0711240C9442080E941F0870F3C2
:100F4000959FC1F3950F50E0551F629FF001729F6E
:100F5000BB27F00DB11D639FAA27F00DB11DAA1F7D
:100F6000649F6627B00DA11D661F829F2227B00DCA
:100F7000A11D621F739FB00DA11D621F839FA00D55
:100F8000611D221F749F3327A00D611D231F849FA5
:100F9000600D211D822F762F6A2F11249F575040FC
:100FA0009AF0F1F088234AF0EE0FFF1FBB1F661F77
:100FB000771F881F91505040A9F79E3F510580F040
:100FC0000C94F7070C9442085F3FE4F3983ED4F387
:100FD000869577956795B795F795E7959F5FC1F7E4
:100FE000FE2B880F911D9695879597F9089597F98F
:100FF0009F6780E870E060E008959FEF80EC0895BF
:1010000000240A94161617061806090608950024E7
:101010000A9412161306140605060895092E039461
:10102000000C11F4882352F0BB0F40F4BF2B11F4D5
:1010300060FF04C06F5F7F4F8F4F9F4F089557FD34
:101040009058440F551F59F05F3F71F04795880F36
:1010500097FB991F61F09F3F79F0879508951216CD
:1010600013061406551FF2CF4695F1DF08C0161679
:1010700017061806991FF1CF86957105610508942A
:101080000895E894BB2766277727CB0197F9089541
:101090002F923F924F925F926F927F928F929F9288
:1010A000AF92BF92CF92DF92EF92FF920F931F9376
:1010B000CF93DF93CDB7DEB7CA1BDB0B0FB6F89427
:1010C000DEBF0FBECDBF09942A88398848885F8467
:1010D0006E847D848C849B84AA84B984C884DF80D8
:1010E000EE80FD800C811B81AA81B981CE0FD11DBC
:1010F0000FB6F894DEBF0FBECDBFED010895505876
:10110000BB27AA270E9497080C940E080E9400088B
:1011100038F00E94070820F039F49F3F19F426F4B4
:101120000C94FD070EF4E095E7FB0C94F707E92F0C
:101130000E941F0858F3BA176207730784079507C0
:1011400020F079F4A6F50C9441080EF4E0950B2EEE
:10115000BA2FA02D0B01B90190010C01CA01A00109
:101160001124FF27591B99F0593F50F4503E68F164
:101170001A16F040A22F232F342F4427585FF3CFA5
:10118000469537952795A795F0405395C9F77EF476
:101190001F16BA0B620B730B840BBAF09150A1F0BF
:1011A000FF0FBB1F661F771F881FC2F70EC0BA0F45
:1011B000621F731F841F48F4879577956795B795CD
:1011C000F7959E3F08F0B0CF9395880F08F09927C8
:1011D000EE0F9795879508950E94F3086894B111D2
:1011E0000C94420808950E94270888F09F5798F0B1
:1011F000B92F9927B751B0F0E1F0660F771F881F1C
:10120000991F1AF0BA95C9F714C0B13091F00E9435
:101210004108B1E008950C944108672F782F882782
:10122000B85F39F0B93FCCF3869577956795B3955C
:10123000D9F73EF490958095709561957F4F8F4FCB
:101240009F4F0895EE0FFF1F0590F491E02D099434
:10125000CF93DF938230910510F482E090E0E0912B
:101260001A02F0911B0220E030E0C0E0D0E030979D
:1012700011F14081518148175907C0F048175907AB
:1012800061F482819381209719F09B838A832BC01C
:1012900090931B0280931A0226C02115310519F084
:1012A0004217530718F49A01BE01DF01EF010280D3
:1012B000F381E02DDCCF2115310509F1281B390B15
:1012C0002430310590F412968D919C9113976115FD
:1012D000710521F0FB019383828304C090931B026C
:1012E00080931A02FD01329644C0FD01E20FF31F04
:1012F00081939193225031092D933C933AC02091D0
:10130000180230911902232B41F4209102013091EF
:1013100003013093190220931802209100013091AB
:1013200001012115310541F42DB73EB7409104016B
:1013300050910501241B350BE0911802F091190220
:10134000E217F307A0F42E1B3F0B2817390778F09C
:10135000AC014E5F5F4F2417350748F04E0F5F1FFB
:1013600050931902409318028193919302C0E0E0D8
:10137000F0E0CF01DF91CF9108950F931F93CF93AA
:10138000DF93009709F48CC0FC013297138212821C
:1013900000911A0210911B020115110581F42081A0
:1013A0003181820F931F2091180230911902281762
:1013B000390779F5F0931902E093180271C0D8014A
:1013C00040E050E0AE17BF0750F412962D913C91CB
:1013D0001397AD012115310509F1D901F3CF9D0115
:1013E000DA013383228360817181860F971F821710
:1013F000930769F4EC0128813981260F371F2E5F8E
:101400003F4F318320838A819B8193838283452B45
:1014100029F4F0931B02E0931A0242C01396FC9346
:10142000EE931297ED01499159919E01240F351FBA
:10143000E217F30771F480819181840F951F029662
:1014400011969C938E938281938113969C938E9395
:101450001297E0E0F0E0D80112968D919C911397DD
:10146000009719F0F8018C01F6CF8D919C919801AD
:101470002E5F3F4F820F931F209118023091190267
:101480002817390769F4309729F410921B0210923B
:101490001A0202C0138212821093190200931802DA
:1014A000DF91CF911F910F910895A0E0B0E0EBE59F
:1014B000FAE00C944C08EC01009721F4CB010E9457
:1014C0002809B8C0FC01E60FF71F9C012250310922
:1014D000E217F30708F4ACC0D9010D911C911197E4
:1014E00006171707B0F00530110508F49FC0C801B2
:1014F00004978617970708F499C002501109061B34
:10150000170B019311936D937C93CF010E94BD093A
:101510008DC05B01A01AB10A4C01800E911EA091F2
:101520001A02B0911B0240E050E0E12CF12C109720
:1015300009F44AC0A815B905D1F56D907C901197B2
:10154000630182E0C80ED11CCA14DB0480F1A30140
:101550004A195B096A0182E0C80ED11C1296BC9040
:1015600012971396AC91B5E0CB16D10440F0B2823D
:10157000A38351834083D9016D937C930AC00E5F8E
:101580001F4FC301800F911FF90191838083EB2DC1
:10159000FA2FE114F10431F0D7011396FC93EE9386
:1015A000129744C0F0931B02E0931A023FC08D9142
:1015B0009C9111974817590708F4AC017D011296C8
:1015C0000D90BC91A02DB3CF80911802909119027B
:1015D00088159905E1F446175707C8F48091000172
:1015E00090910101009741F48DB79EB7409104019D
:1015F00050910501841B950BE817F907C8F4F09387
:101600001902E0931802F901718360830FC0CB01C6
:101610000E9428097C01009759F0A801BE010E9490
:10162000240BCE010E94BD09C70104C0CE0102C037
:1016300080E090E0CDB7DEB7EEE00C94680881E082
:1016400090E0F8940C94340BFB01DC0102C0019093
:101650000D9241505040D8F70895FB01DC010190F4
:0C1660000D920020E1F70895F894FFCFF0
:10166C0000001C028000000000003901A600D1001F
:10167C0080010201E000F40000000000CA02A60094
:10168C00730372030D0A007374617274696E6720C0
:10169C0070726F6772616D004649524557415443F1
:1016AC004820494E495400476173206C6576656C3F
:0A16BC003A200054656D703A2000DA
:00000001FF
